:100000000210C1000000000000000000000000001D
:100033000218BF00000000000000000000000000E4
:100033000218C300000000000000000000000000E0
:1000430002134B000000000000000000000000004D
:100043000215D800000000000000000000000000BE
:10004300021779000000000000000000000000001B
:100043000216000000000000000000000000000095
:10004B00020D2B000000000000000000000000006B
:100080007F13E4FD120BF47F05901BFFE024D2F5F3
:1000900082E4341BF583E04470FD120BF47F04E42A
:1000A000FD120BF47F03120BEBEF54E0FD7F031204
:1000B0000BF47F027D20120BF47F017D12120BF4F2
:1000C0007F0B7D7F120BF47F0C7DFF120BF47F12F0
:1000D0007D42120BF4E4FF7D48120BF47F117D2961
:1000E000120BF4E4901BD9F0F518F5197F0B120BE5
:1000F000EBEF5440FFBF4008901BD97401F0801310
:100100000519E51970020518C3E51994F4E518946A
:100110007E40D9E4FFFD120BF47F0C7D08120BF436
:10012000901BD9E0700D7F03FD120BF4752F107535
:10013000248A227F0C7D01120BF47F037DA0120B19
:10014000F4120BD77F0C120BEBEF20E0107F0C1298
:100150000BEBEF30E3EE752F11752493227F031222
:100160000BEBEF54E0F5137F0C7D43120BF47F1281
:10017000E4FD120BF47F017D20120BF47F0C120BB7
:10018000EBEF30E202D208E513700302022224C032
:10019000700302044124A0700302061E24E07003D1
:1001A00002064724E0700302065F24606003020633
:1001B000CCE4FFFD120BF47F037D80120BF47F1261
:1001C0007DCA120BF47F017DF2120BF47F017DE0FA
:1001D000120BF47F14120BEBEF20E3147F0C120BC5
:1001E000EBEF541860ED752F117524841214EF2273
:1001F000E4F514E514C3952250167F1674DE251419
:10020000F582E4341BF583E0FD120BF4051480E362
:10021000120BD77F0C120BEBEF5418600302014155
:1002200080F1632520901BFEE07012FFFEFDFCAB09
:1002300033AA32A931A830C3120E8D700A1214EFFE
:10024000752F1175249222752E00752D00752C00C6
:10025000752B00E4F52F7F03FD120BF47F0B7D7FE0
:10026000120BF47F127DCA120BF47F017DF2120B88
:10027000F47F017DE0120BF4E533547FFFE48F142B
:10028000AF33AE32AD31AC307807120E9E8E158F83
:1002900016E51645157003020332E4F518F519C387
:1002A000E5199516E5189515506F7F14120BEBEFB5
:1002B00020E3297F0C120BEBEF541860EDC3E533FC
:1002C000952EF537E532952DF536E531952CF5353A
:1002D000E530952BF534752F10020141907FC8E071
:1002E00020E1F9120B5DE4907FC9F0907FC8E02017
:1002F000E1F9120B5DE4907FC9F0E52E2480F52E24
:10030000E4352DF52DE4352CF52CE4352BF52B05B6
:1003100019E519700205188086C3E533952EF53767
:10032000E532952DF536E531952CF535E530952BF3
:10033000F534E51470030203FCD3943F405C907FD6
:10034000C8E020E1F97F14120BEBEF20E3107F0CE3
:10035000120BEBEF541860ED752F10020141120BD8
:100360005DE4907FC9F0E52E2440F52EE4352DF5AF
:100370002DE4352CF52CE4352BF52BC3E533952EE8
:10038000F537E532952DF536E531952CF535E53027
:10039000952BF53474C02514F514E514605E907F38
:1003A000C8E020E1F97F14120BEBEF20E3297F0C6A
:1003B000120BEBEF541860EDC3E533952EF537E5DE
:1003C00032952DF536E531952CF535E530952BF543
:1003D00034752F10020141E4F517E517C395145049
:1003E000167F1674C02517F582E4347DF583E0FD91
:1003F000120BF4051780E3E4907FC9F075370075A0
:1004000036007535007534007F0C120BEBEF30E4CD
:10041000030201417F14120BEBEF30E3EB7F0D126F
:100420000BEBEF30E4E27F0C120BEB8F14EF30E1BB
:100430000302014130E0D11214EF752F117524929F
:1004400022632520901BFEE0B480167F007E007D95
:10045000007C00AB33AA32A931A830C3120E8D70D4
:100460000A1214EF752F1175249222E4F52F7F03E1
:100470007D40120BF47F0B7D7F120BF47F127DC247
:10048000120BF47F017DF2120BF47F017DE0120B61
:10049000F4E533547FFFE48F14AF33AE32AD31ACAB
:1004A000307807120E9E8E158F16E4F518F519C3D5
:1004B000E5199516E5189515400302058C7F141271
:1004C0000BEBEF30E4030205487F0C120BEB8F12AD
:1004D000EF30E4697F15120BEB8F14E5146058E4DC
:1004E000FCFDFEAB07C3E5379BF537E5369400F519
:1004F00036E5359400F535E5349400F534E514D34C
:10050000943F4016907FB8E020E1F9120AE3907F13
:10051000B97440F074C02514F514E5147003020199
:1005200041907FB8E020E1F9120AE3907FB9E51429
:10053000F0752601020141752F10020141E51220DC
:10054000E3030204BD020141907FB8E020E1F9120B
:100550000AE3907FB97440F0907FB8E020E1F9128F
:100560000AE3907FB97440F0C3E5379480F537E52E
:10057000369400F536E5359400F535E5349400F50C
:10058000340519E519700205180204AFE514606E10
:100590007F0C120BEBEF30E4F77F15120BEB8F178C
:1005A000E514D395174003851714AF14E4FCFDFE42
:1005B000AB07C3E5379BF537E5369400F536E535EF
:1005C0009400F535E5349400F534E514D3943F40B8
:1005D00016907FB8E020E1F9120AE3907FB97440E9
:1005E000F074C02514F514E5146013907FB8E02072
:1005F000E1F9120AE3907FB9E514F07526017F0C4A
:10060000120BEBEF541860030201417F14120BEB45
:10061000EF20E3EA1214EF752F11752492227F0365
:100620007DA0120BF47F017D28120BF47F0B7D7FE0
:10063000120BF47F06901BDFE0FEC41354074480C6
:10064000FD120BF40201417F017D28120BF47F03A0
:100650007DC0120BF47F06120BEB8F240201417F49
:10066000037DE0120BF47F017D28120BF4E4FFFD03
:10067000120BF47F06120BEB901C00EFF07F0C12B4
:100680000BEBEF540A60F67F12E4FD120BF4E4FF6B
:10069000FD120BF47F017D12120BF47F03E4FD12B7
:1006A0000BF47F06E4FD120BF47F0B7D7F120BF43D
:1006B0007F0C7DFF120BF47F10E4FD120BF47F1111
:1006C000E4FD120BF47F127D02120BF40000000017
:1006CC0022000000000000000000000000000000FC
:1006CD00901BDCE06455701EF0907FB4E04402F0A6
:1006DD00907FB8E020E103020957E04402F0907FDB
:1006ED00BAE04402F022907FE9E0120ED007A80094
:1006FD00082401089A03071C0607A208079C09078E
:10070D00900A07960B08F65A0923FE0000094412B9
:10071D0018C74003020950907FEBE024FE601614C9
:10072D006032240270537415907FD4F074A0907FC2
:10073D00D5F0020950907FEAE0700F7415907FD4C8
:10074D00F074B2907FD5F0020950907FB4E044016F
:10075D00F0020950907FEAE0C394065012E0FF12B8
:10076D001257EA907FD4F0E9907FD5F002095090AE
:10077D007FB4E04401F0020950907FB4E04401F0F1
:10078D000209501218790209501218A402095012C8
:10079D0016C50209501218690209501218C94003F2
:1007AD00020950907FE8E0247F6024146031240218
:1007BD00705BA200E433FF25E0FFA202E4334F900B
:1007CD007F00F0E4A3F0907FB57402F0020950E4CD
:1007DD00907F00F0A3F0907FB57402F00209509065
:1007ED007FECE0F45480FFC4540FFFE054072F2535
:1007FD00E024B4F582E4347FF583E05401907F006A
:10080D00F0E4A3F0907FB57402F0020950907FB42C
:10081D00E04401F00209501218CB40030209509038
:10082D007FE8E024FE601D24026003020950907FE2
:10083D00EAE0B40105C200020950907FB4E0440122
:10084D00F0020950907FEAE07039907FECE0F454AB
:10085D0080FFC4540FFFE054072F25E024B4F58228
:10086D00E4347FF583E4F0907FECE05480FF1313C4
:10087D0013541FFFE054072F907FD7F0E04420F072
:10088D00020950907FB4E04401F00209501218CDD6
:10089D004003020950907FE8E024FE601D240260B1
:1008AD0003020950907FEAE0B40105D2000209501D
:1008BD00907FB4E04401F0020950907FEAE070208F
:1008CD00907FECE0F45480FFC4540FFFE054072FE9
:1008DD0025E024B4F582E4347FF5837401F0806360
:1008ED00907FB4E04401F0805A907FE8E06440606E
:1008FD0009907FB4E04401F08049907FEAE01460F4
:10090D000B14600C2402703BC2048037D204803378
:10091D00C205D207802D907FE8E064A16009907F29
:10092D00B4E04401F0801C901BDAE0907F00F09061
:10093D007FB57401F0800C1218CF5007907FB4E092
:10094D004401F0907FB4E04402F00000000000008C
:10095700220000000000000000000000000000006E
:10095800E5266003020A1EFFFEFDFCAB37AA36A996
:1009680035A834C3120E8D7003020A1E901BFEE0D8
:100978006003020A12AF37AE36AD35AC34780612D2
:100988000E9E8F168E158D148C13E537543FFFE499
:100998008F1BFFFEFDFCAB16AA15A914A813C312E2
:1009A8000E8D6048751A00751900751800751700C6
:1009B800AF16AE15AD14AC13AB1AAA19A918A8171F
:1009C800C3120E8D5026907FC8E020E1F9E4907F95
:1009D800C9F0FAF9F8E51A2401F51AEA3519F519F2
:1009E800E93518F518E83517F51780C4E51B600CCC
:1009F800907FC8E020E1F9E4907FC9F07537007571
:100A08003600753500753400800C907FB8E020E121
:100A1800F9E4907FB9F0907FB8E020E1F97E7E7F1D
:100A28000075117E751200901BC0E0FCA3E0FDA3C9
:100A3800E0FEA3E0FF851282851183120EC4AF2A5F
:100A4800AE29AD28AC27E5122404F582E43511F56A
:100A580083120EC4300807E524700375248FC2087A
:100A6800300410E512240CF582E43511F583E524F1
:100A7800F08027E52460047F0180027F00E51224CE
:100A88000CF582E43511F583EFF0E52FB41003740B
:100A980001F0E52FB411037402F0AF37AE36AD356F
:100AA800AC3412114DE5122408F582E43511F583B2
:100AB800120EC4907FB9740DF0907FB8E020E1F970
:100AC800E4907FC9F0000000000000000000000072
:100ACD0022000000000000000000000000000000F7
:100ACE0075813F7423C0E07417C0E03275813FE436
:100ADE00C0E0C0E032C0E0C082C083120BE2907F63
:100AEE0097E4F0907F937430F0907FE2745BF0A304
:100AFE00747EF0A37400F0A3F0F0F0F0F0F0F0F0DC
:100B0E00F0F0F0F0F0F0F0F0F0F0F0F0F0F0F0F0D7
:100B1E00F0F0F0F0F0F0F0F0F0F0F0F0F0F0F0F0C7
:100B2E00F0F0F0F0F0F0F0F0F0F0F0F0F0F0F0F0B7
:100B3E00F0F0F0F0F0F0F0F0907F937400F0907F12
:100B4E00E2F0907F977480F0D083D082D0E022C004
:100B5E00E0C082C083120BE2907F97E4F0907F9307
:100B6E007430F0907FE2745BF0A3747DF0A374C0D8
:100B7E00F0A3E0E0E0E0E0E0E0E0E0E0E0E0E0E094
:100B8E00E0E0E0E0E0E0E0E0E0E0E0E0E0E0E0E057
:100B9E00E0E0E0E0E0E0E0E0E0E0E0E0E0E0E0E047
:100BAE00E0E0E0E0E0E000000000000000000000F7
:100BB400E0E0E0E0E0E0E0E0E0E0E0E0907F93749B
:100BC40000F0907FE2F0907F977480F0D083D08221
:100BD400D0E022907F98E04420800AEF80027416CF
:100BE400907F984525F022120BDF906000E0FF22F1
:100BF400120BDF906000EDF0220000000000000006
:100BFD00907FC8E030E103020D2AE4F524300512A0
:100C0D0020070F1213BD5004D2078006752F1075E3
:100C1D00248A907FC9E0F50E7E7D7FC0750F7D75AE
:100C2D0010C0E4FFE510240FF582E4350FF583E5E0
:100C3D00822FF582E43583F583E0FE74DE2FF58295
:100C4D00E4341BF583EEF00FBF10D9E510240EF53B
:100C5D0082E4350FF583E0541FF522E5102408F5E5
:100C6D0082E4350FF583E0FCA3E0FDA3E0FEA3E0F5
:100C7D00FF12114D8F338E328D318C30E510240CD7
:100C8D00F582E4350FF583E05480901BFEF0E510FE
:100C9D00240DF582E4350FF583E0901BFFF0E51090
:100CAD002404F582E4350FF583E0FCA3E0FDA3E019
:100CBD00FEA3E0F52A8E298D288C278F37853236B5
:100CCD00853135853034E4901C01F0F52685108290
:100CDD00850F83E0FCA3E0FDA3E0FEA3E0FF901BE6
:100CED00B9E0F8A3E0F9A3E0FAA3E0FBC3120E8D7F
:100CFD007006E50E641F600412188922E4907FC906
:100D0D00F0907FB8E020E1F9E4F52F75230130076D
:100D1D0003120080E4F523120958120BD7000000CE
:100D2A002200000000000000000000000000000097
:100D2B00C0E0C083C082C085C084C086758600C009
:100D3B00D0C000C001C002C003C006C007907FA591
:100D4B00E030E206753D06020E07907FA5E020E13C
:100D5B000CE53D64026006753D07020E07AF3DEFE3
:100D6B0024FE605814602F24FE7003020DFD240432
:100D7B006003020E07AB39AA3AA93BAF3C053C8F87
:100D8B0082758300120E3E907FA6F0E53C653870AD
:100D9B006B753D058066907FA6E0AB39AA3AA93BFF
:100DAB00AE3C8E82758300120E6B753D02E5386486
:100DBB00017049907FA5E04420F08040E53824FE87
:100DCB00B53C07907FA5E04420F0E53814B53C0A0C
:100DDB00907FA5E04440F0E4F53D907FA6E0AB3971
:100DEB00AA3AA93BAE3C8E82758300120E6B053C72
:100DFB00800A907FA5E04440F0E4F53D5391DFD0AD
:100E0B0007D006D003D002D001D000D0D0D086D0EE
:100E1B0084D085D082D083D0E03200000000000067
:100E2500BB010689828A83E0225002E722BBFE02CB
:100E3500E32289828A83E4932200000000000000F7
:100E3E00BB010CE58229F582E5833AF583E0225069
:100E4E0006E92582F8E622BBFE06E92582F8E222B3
:100E5E00E58229F582E5833AF583E49322000000CA
:100E6B00F8BB010DE58229F582E5833AF583E8F0BD
:100E7B00225006E92582C8F622BBFE05E92582C869
:100E8B00F222000000000000000000000000000043
:100E8D00EB9FF5F0EA9E42F0E99D42F0E89C45F0BB
:100E9D002200000000000000000000000000000023
:100E9E00E8600FECC313FCED13FDEE13FEEF13FF32
:100EAE00D8F1220000000000000000000000000049
:100EB100E8600FEFC333FFEE33FEED33FDEC33FC9F
:100EC100D8F1220000000000000000000000000036
:100EC400ECF0A3EDF0A3EEF0A3EFF022000000009D
:100ED000D083D082F8E4937012740193700DA3A3B1
:100EE00093F8740193F5828883E4737402936860C5
:100EF000EFA3A3A380DF00000000000000000000BB
:100EF6008E178F187D027C1C8D828C83E0FEA3E00A
:100F0600FBCAEECA4A7003FEFF228B828A83A3A322
:100F1600E0FEA3E0FFC39518EE95175008CCEACC87
:100F2600CDEBCD80D3C3EF9518F51AEE9517F519CD
:100F3600C3E51A9410E519940050198B828A83E050
:100F4600FFA3E08D828C83CFF0A3EFF0EB2404FFA8
:100F5600E43AFE2274FC251AF51A74FF3519F519C0
:100F66008B828A83A3A3F0A3E51AF0EB2404FFE4A3
:100F76003ACF251AFDEF3519FC8D82F583A3A3E53B
:100F860017F0A3E518F0ED2404FFE43CFE22000070
:100F9400441BB955534243441BC055534253C108E3
:100FA400C107441B67040309044E1BC441646170F8
:100FB4007465632C20496E632E005B1B4941646198
:100FC4007074656320555342586368616E67652089
:100FD40041646170746572004C1B905553422074D7
:100FE4006F2053435349005C1B9C555342204D6171
:100FF40073732053746F726167652C2042756C6B38
:10100400204F6E6C7900411BB800411B4800000062
:10101200411BDC00471BD200010203040506411BF1
:10102200DA060000000000000000000000000000DE
:10102400481C020000000000000000000000000056
:10102F0000000000000000000000000000000000B1
:101030008B0E8A0F891000000000000000000000E5
:10103600121844EF25E02402F511FF7E00120EF689
:101046008E128F13EF4E7003FEFF228513828512D8
:1010560083A37403F0851382851283E511F0AB0E2A
:10106600AA0FA9101218448F11E5132402F515E4EE
:101076003512F514E4F516E516C395115038AB0E86
:101086000510E510AA0F7002050F14F9120E25FFC0
:101096000515E515AC147002051414F5828C83EF62
:1010A600F00515E515AE147002051414F5828E834D
:1010B600E4F0051680C1AE12AF1300000000000078
:1010C00022000000000000000000000000000000FE
:1010C100787FE4F6D8FD75813D021108000000002B
:1010CD00021491E493A3F8E493A34003F68001F294
:1010DD0008DFF48029E493A3F85407240CC8C33324
:1010ED00C4540F4420C8834004F456800146F6DFF3
:1010FD00E4800B0102040810204080900F94E47EE0
:10110D00019360BCA3FF543F30E509541FFEE493E7
:10111D00A360010ECF54C025E060A840B8E493A3AE
:10112D00FAE493A3F8E493A3C8C582C8CAC583CAD9
:10113D00F0A3C8C582C8CAC583CADFE9DEE780BE91
:10114D008F1F8E1E8D1D8C1C7808120E9EE4FFEED7
:10115D00E4FDFCC004C005C006C007AF1FAE1EAD48
:10116D001DAC1C7818120E9ED003D002D001D000F9
:10117D00EF4BFFEE4AFEED49FDEC48FCC004C00507
:10118D00C006C007AF1FAE1EAD1DAC1C7808120EF9
:10119D00B1E4EDE4D003D002D001D000EBFFEAFEC4
:1011AD00E94DFDE8FCC004C005AF1FAE1EAD1DAC82
:1011BD001C7818120EB1E4ECD001D000EBFFEAFE62
:1011CD00E9FDE84CFC2200000000000000000000DA
:1011D300901B647401F0A3741BF0A37467F07B018C
:1011E3007A1B79C4121030AA06A907901BBD74019B
:1011F300F0A3EAF0A3E9F07B017A1B7949121030DE
:10120300AA06A907901B457401F0A3EAF0A3E9F02D
:10121300121658901B427401F0A3741BF0A374734D
:10122300F07B017A1B7990121030AA06A907901B54
:101233006B7401F0A3EAF0A3E9F07B017A1B799CBC
:10124300121030AA06A907901B8D7401F0A3EAF0CF
:10125300A3E9F022000000000000000000000000ED
:10125700750E00750F00751000EF7010901B64E09D
:10126700FBA3E0FAA3E08B0E8A0FF510BF011090E5
:101277001BBDE0FBA3E0FAA3E08B0E8A0FF510BFBE
:101287000210901B45E0FBA3E0FAA3E08B0E8A0F48
:10129700F510BF0309750E01750F1B751073BF0499
:1012A70010901B6BE0FBA3E0FAA3E08B0E8A0FF50F
:1012B70010BF0510901B8DE0FBA3E0FAA3E08B0E97
:1012C7008A0FF510AB0EAA0FA9100000000000004E
:1012D10022000000000000000000000000000000EB
:1012D20020060AD206907F98E044208008C2069039
:1012E2007F98E054DFF0227F13E4FD120BF47F12AB
:1012F2007DAA120BF47F16FD120BF47F127DE01211
:101302000BF47F16120BEB7F16120BEBEF600CC285
:10131200029015B97480F0A374FAF022901B6FE06A
:10132200C0E0A3E0C0E0A3E0C0E0A3E0C0E090150D
:10133200ABD0E0F09015AAD0E04401F09015A9D00E
:10134200E0F09015A8D0E0F02200000000000000BC
:10134B00C0E0C0F0C083C082C085C084C0867586F3
:10135B0000C0D075D000C000C001C002C003C004E3
:10136B00C005C006C007D2015391EF907FAB74014B
:10137B00F0907FE8E0B42119A3E0B4FF14901BDCDC
:10138B007455F01214EFE523B40106752300120A0D
:10139B00CED007D006D005D004D003D002D001D0D8
:1013AB0000D0D0D086D084D085D082D083D0F0D05E
:1013BB00E032000000000000000000000000000010
:1013BD00C209E4901BDEF0A3F0A3F0A3F0A3F0A309
:1013CD00F0752206901BDAF0F511901BFFE511F078
:1013DD0024D2F582E4341BF583E511F01200807FF1
:1013ED00037E0012182D901BD9E06018901BDAE0D7
:1013FD00FF04F074D22FF582E4341BF583E511F070
:10140D00D209800E74D22511F582E4341BF5837454
:10141D00FFF00511E511C3940740AFA209000000CC
:10142A002200000000000000000000000000000090
:10142B00907FA17401F0907F9D7480F0907F97F076
:10143B00907F9574C0F0907F9E743FF0E4F525F596
:10144B002FD205C2041218B71218981211D3907F1D
:10145B00DE7404F0907FDFF0907FDD7409F0E49090
:10146B007FE2F0907FC9F0907FB2740BF0A374FD14
:10147B00F0907FAFE04402F0E054FBF012131E1229
:10148B0012E9538EF822000000000000000000005B
:10149100750D00750C00750B00750A00907FA17425
:1014A10001F0C203C200D202C201907F9574C0F064
:1014B100907F9E741FF0E4907FC4F012142BD2E849
:1014C10043D820907FAFE0440154F7F0907FAEE025
:1014D1004419F0D2AF20010D901BDCE0645560058A
:1014E100D20912168FE4901BDCF0121723000000C2
:1014EE0022000000000000000000000000000000CC
:1014EF001217BF7F13E4FD120BF4E4FFFD120BF490
:1014FF007F017D12120BF47F017D20120BF47F030D
:10150F00E4FD120BF47F04E4FD120BF47F06E4FDFF
:10151F00120BF47F0B7D7F120BF47F0C7DFF120BF0
:10152F00F47F10E4FD120BF47F11E4FD120BF47F36
:10153F00127D02120BF4E4FFFD120BF422000000E7
:10154C00CBEFCBCAEECAC3ED9428EC940050057EC9
:10155C00007F0022EB4A7008FA7B01ED1D70011C24
:10156C00901C02EAF0A3EBF0A3ECF0A3EDF0901CBE
:10157C0002E0FEA3E0FFF5828E83E4F0A3F0ED24FD
:10158C00FCFDEC34FF8F828E83A3A3F0A3EDF07EE1
:10159C00FF7FFF22000000000000000000000000A0
:1015A00012010001000000400000000000010102E3
:1015B000030109022000010104C0320904000002F5
:1015C000FF00FF05070582024000000705020240F8
:1015D00000000403090400000000000000000000F7
:1015D800C0E0C083C082C085C084C086758600D242
:1015E800035391EF907FAB7408F0D086D084D085F8
:1015F800D082D083D0E0320000000000000000005C
:1016000002134B0002000000020000000215D80087
:101610000217790002000000020000000200000032
:1016200002000000020000000200000002000000B2
:1016300002000000020000000200000002000000A2
:101640000200000002000000020000000200000092
:101650000200000002000000000000000000000086
:10165800750E507D01E4901B40F0A3F0907FA5E04B
:1016680030E404750E510DAF0E7A1B7B401217F74C
:10167800AF0E7D1F7A1B7B6E1217DB901B73741ADB
:10168800F0A37403F0D30000000000000000000085
:10168E00220000000000000000000000000000002A
:10168F00907FD6E054FBF0E04408F0300904E044CA
:10169F0002F07FDC7E0512182D907FAB74FFF09067
:1016AF007FA9F0907FAAF05391EF907FD6E054F787
:1016BF00F0E04404F02200000000000000000000F1
:1016C500907FEAE0901BB8F01214EF907FB8E030FD
:1016D500E10BE04402F0907FBAE04402F0E523B468
:1016E500010D907FB4E04402F0E4F523120ACED355
:1016F50022000000000000000000000000000000C3
:1016F600A907E53D7025907FA5E04480F0E925E047
:101706004401907FA6F08D38AF03A9077539018A89
:101716003A893BE4F53C753D03D322C32200000021
:101723003001051206CDC20130031A1218595015A3
:10173300C20312179E200007907FD6E020E7F31222
:1017430018131218AE120BFD80D622000000000001
:10174E00A907E53D7023907FA5E04480F0E925E0F0
:10175E00907FA6F08D38AF03A9077539018A3A89B3
:10176E003BE4F53C753D01D322C32200000000008E
:10177900C0E0C083C082C085C084C086758600531E
:1017890091EF907FAB7410F0D086D084D085D08251
:10179900D083D0E03200000000000000000000000B
:10179E00907FD6E04480F0438701000000000022D5
:1017AE007400F58690FDA57C05A3E582458370F94E
:1017BE0022000000000000000000000000000000F9
:1017BF00E4FF7D01120BF47F3C7E0012182DE4FF35
:1017CF00FD120BF47F3C7E0012182D22000000004A
:1017DB001216F6E53D24FA600E146006240770F32A
:1017EB00D322E4F53DD322E4F53DD32200000000E3
:1017F70012174EE53D24FA600E146006240770F3B5
:10180700D322E4F53DD322E4F53DD32200000000C6
:10181300907FD6E030E712E04401F07F147E00129F
:10182300182D907FD6E054FEF02200000000000047
:10182D008E1A8F1BE51B151BAE1A7002151A4E6012
:10183D00051217AE80EE220000000000000000002F
:10184400E4FFFE120E25600C0FEF70010E09E97023
:10185400F20A80EF220000000000000000000000F7
:10185900907FAFE04408F07F137D80120BF4D32210
:10186900901BB8E0907F00F0907FB57401F0D3220F
:10187900901B48E0907F00F0907FB57401F0D3226F
:10188900907FB87401F0907FC8F0901BDCF02200C3
:101898007F407E1C7D007C0112154C220000000058
:1018A400907FEAE0901B48F0D32200000000000083
:1018AE007F13E4FD120BF4D32200000000000000B1
:1018B700E4F53DD2E9D2AF220000000000000000AD
:1018BF0053D8EF32000000000000000000000000CD
:1018C30053D8EF32000000000000000000000000C9
:1018C700D32200000000000000000000000000001C
:1018C900D32200000000000000000000000000001A
:1018CB00D322000000000000000000000000000018
:1018CD00D322000000000000000000000000000016
:1018CF00D322000000000000000000000000000014
:00000001FF
